:100000000C942A000C9453000C948B000C94470021
:100010000C9447000C9447000C9447000C94470044
:100020000C9447000C9447000C9447000C94470034
:100030000C9447000C9447000C9447000C94470024
:100040000C9471020C9447000C9447000C944700E8
:100050000C94470011241FBECFE5D8E0DEBFCDBF12
:1000600010E0A0E6B0E0E4E4FBE002C005900D92F1
:10007000A639B107D9F720E0A6E9B0E001C01D928A
:10008000A839B207E1F70E9449000C94A0050C942E
:100090000000CF93DF93CDB7DEB70E94C20000000F
:1000A000DF91CF9108951F920F9200905F000F9201
:1000B00011242F933F934F935F936F937F938F936D
:1000C0009F93AF93BF93EF93FF93CF93DF93CDB7FE
:1000D000DEB78091600087304CF4809160008F5FC4
:1000E00080936000809160000E9455020000DF91C3
:1000F000CF91FF91EF91BF91AF919F918F917F91A0
:100100006F915F914F913F912F910F9000925F00FF
:100110000F901F9018951F920F9200905F000F9202
:1001200011242F933F934F935F936F937F938F93FC
:100130009F93AF93BF93EF93FF93CF93DF93CDB78D
:10014000DEB780916000882344F080916000982F92
:100150009150909360000E9463020000DF91CF9164
:10016000FF91EF91BF91AF919F918F917F916F918F
:100170005F914F913F912F910F9000925F000F90F0
:100180001F901895CF93DF93CDB7DEB70E94A802DA
:100190000E946B01FFCFCF93DF9300D000D01F925E
:1001A000CDB7DEB78B836C834D8319821A82809121
:1001B00069006B810E94FF03882319F081E0898325
:1001C0002EC080916A006C810E94FF03882319F081
:1001D00081E0898324C01A821FC08D81882F90E01E
:1001E0002A81222F30E002C0959587952A95E2F763
:1001F000282F21708A81882F90E08F599F4FFC0112
:100200008081622F0E94FF03882319F081E0898397
:1002100006C08A818F5F8A838A818830F0F2898163
:100220000F900F900F900F900F90DF91CF91089546
:10023000CF93DF9300D0CDB7DEB78A831982809148
:100240006B006A810E94FF03882311F081E089839B
:1002500089810F900F90DF91CF910895CF93DF9315
:1002600000D000D0CDB7DEB78A837C836B83198240
:100270004A8160E080E00E94CB00882319F081E091
:10028000898312C081E00E941801882319F081E05F
:1002900089830AC060E070E080E090E40E947C0402
:1002A00080E00E941801898389810F900F900F9040
:1002B0000F90DF91CF910895CF93DF931F92CDB729
:1002C000DEB7898362E070E089810E942E010F9081
:1002D000DF91CF910895CF93DF931F92CDB7DEB713
:1002E000198260E070E084E292E40E947C0465E0A0
:1002F00070E088E30E942E01982F8981981730F0D2
:1003000065E070E088E30E942E0101C08981898345
:1003100061E070E088E30E942E01982F8981981790
:1003200030F061E070E088E30E942E0101C0898115
:10033000898388E30E945C01982F8981981720F0B7
:1003400088E30E945C0101C08981898388E30E945F
:100350005C01982F8981981720F088E30E945C0146
:1003600001C08981898388E00E945C01982F89817E
:10037000981720F088E00E945C0101C08981898380
:1003800081E00E945C01982F8981981720F081E01C
:100390000E945C0101C08981898387E00E945C0121
:1003A000982F8981981720F087E00E945C0101C096
:1003B000898189838FE00E945C01982F8981981739
:1003C00020F08FE00E945C0101C0898189838981CE
:1003D0000F90DF91CF910895CF93DF9300D000D09D
:1003E0001F92CDB7DEB78C836D8319821A821B8270
:1003F0001B8249C08B81282F30E0C901880F991FCB
:10040000820F931F84599F4FFC0190818C81981714
:10041000B9F58B81282F30E0C901880F991F820F11
:10042000931F83599F4FFC018081882369F48D813C
:10043000813029F48C810E9442038A8311C08C810F
:100440000E94A0038A830CC08D81813029F48C81A5
:100450000E94A0038A8304C08C810E9442038A8385
:100460008A81882F90E08330910519F0049721F05C
:100470000EC082E0898303C083E08983000007C047
:100480008B818F5F8B838B818E3008F4B3CF8B8110
:100490008E3011F482E0898389810F900F900F9044
:1004A0000F900F90DF91CF910895CF93DF931F921C
:1004B000CDB7DEB7898361E089810E94EC010F909E
:1004C000DF91CF910895CF93DF931F92CDB7DEB721
:1004D000898360E089810E94EC010F90DF91CF91C8
:1004E00008951F920F9200905F000F9211242F9396
:1004F0003F934F935F936F937F938F939F93AF93AC
:10050000BF93EF93FF93CF93DF93CDB7DEB7809187
:10051000960090919700892B31F0809196009091F0
:100520009700FC0109950000DF91CF91FF91EF91B9
:10053000BF91AF919F918F917F916F915F914F91FB
:100540003F912F910F9000925F000F901F90189590
:10055000CF93DF93CDB7DEB78AE390E0FC01108242
:1005600087E390E027E0FC01208384E390E0FC0136
:10057000108281E390E02FEFFC0120838BE390E079
:10058000FC01108288E390E0FC01108285E390E09A
:10059000FC01108282E390E0FC0110820000DF91F8
:1005A000CF910895CF93DF9300D01F92CDB7DEB7E0
:1005B00089837B836A838981282F27708A819B8125
:1005C000FC01208300000F900F900F90DF91CF91DE
:1005D0000895CF93DF93CDB7DEB728970FB6F89481
:1005E000DEBF0FBECDBF8A837C836B835E834D836A
:1005F00038872F838A818695869586958983898118
:10060000282F30E0C901880F991F820F931F919501
:10061000819591099C01265C3F4F8B819C81FC0157
:10062000318320838981282F30E0C901880F991FE9
:10063000820F931F9195819591099C01255C3F4FF5
:100640008D819E81FC01318320838981282F30E0B8
:10065000C901880F991F820F931F91958195910968
:100660009C01275C3F4F8F819885FC01318320835B
:10067000000028960FB6F894DEBF0FBECDBFDF9105
:10068000CF910895CF93DF93CDB7DEB729970FB6FB
:10069000F894DEBF0FBECDBF89871A821C821B82F1
:1006A0001E821D8218861F8219828985803218F069
:1006B00083E089833BC0CE010296BC0189850E94FC
:1006C000D2029E01295F3F4FAE014B5F5F4FCE01CB
:1006D0000396BC0189850E94E9028B819C81FC0103
:1006E0008081882F90E02A81222F30E002C09595EA
:1006F00087952A95E2F781709927892B19F484E070
:10070000898314C08D819E812D813E81F9012081D4
:10071000622F2A81422F50E021E030E002C0220FF8
:10072000331F4A95E2F7262BFC0120838981299605
:100730000FB6F894DEBF0FBECDBFDF91CF91089505
:10074000CF93DF93CDB7DEB729970FB6F894DEBF0E
:100750000FBECDBF89871A821C821B821E821D821A
:1007600018861F8219828985803218F083E0898378
:100770003CC0CE010296BC0189850E94D2029E0136
:10078000295F3F4FAE014B5F5F4FCE010396BC0127
:1007900089850E94E9028B819C81FC018081882FE0
:1007A00090E02A81222F30E002C0959587952A9506
:1007B000E2F781709927892B19F484E0898315C0A9
:1007C0008D819E812D813E81F9012081622F2A81B8
:1007D000422F50E021E030E002C0220F331F4A9543
:1007E000E2F720952623FC012083898129960FB604
:1007F000F894DEBF0FBECDBFDF91CF910895CF93A8
:10080000DF93CDB7DEB72A970FB6F894DEBF0FBEE1
:10081000CDBF89876A871A821C821B821E821D8235
:1008200018861F8219828985803218F083E08983B7
:1008300059C0CE010296BC0189850E94D2029E0158
:10084000295F3F4FAE014B5F5F4FCE010396BC0166
:1008500089850E94E9028B819C81FC018081882F1F
:1008600090E02A81222F30E002C0959587952A9545
:10087000E2F781709927892B19F484E0898332C0CB
:100880008D819E812A85222F30E04A81442F50E0BD
:1008900002C0220F331F4A95E2F7622F2D813E815D
:1008A000F9012081722F2A81222F30E0A9014F5FA8
:1008B0005F4F21E030E002C0220F331F4A95E2F77C
:1008C0002195E22F2A81422F50E021E030E002C042
:1008D000220F331F4A95E2F721502E272723262B7C
:1008E000FC01208389812A960FB6F894DEBF0FBEE3
:1008F000CDBFDF91CF910895CF93DF93CDB7DEB712
:1009000028970FB6F894DEBF0FBECDBF6D837E83F0
:100910008F83988719821A821B821C8212C0898158
:100920009A81AB81BC812DEC3CEC4CE85EE3BC01D0
:10093000CD010E94BA04DC01CB0189839A83AB8389
:10094000BC8389819A81AB81BC812D813E814F819D
:100950005885BC01CD010E942605882304F30000C0
:1009600028960FB6F894DEBF0FBECDBFDF91CF91B2
:1009700008955058BB27AA270E94D1040C946605FD
:100980000E94580538F00E945F0520F039F49F3F1F
:1009900019F426F40C9455050EF4E095E7FB0C943D
:1009A0004F05E92F0E94770558F3BA1762077307BE
:1009B0008407950720F079F4A6F50C9499050EF4B8
:1009C000E0950B2EBA2FA02D0B01B90190010C015F
:1009D000CA01A0011124FF27591B99F0593F50F477
:1009E000503E68F11A16F040A22F232F342F4427CF
:1009F000585FF3CF469537952795A795F0405395C7
:100A0000C9F77EF41F16BA0B620B730B840BBAF096
:100A10009150A1F0FF0FBB1F661F771F881FC2F701
:100A20000EC0BA0F621F731F841F48F48795779515
:100A30006795B795F7959E3F08F0B0CF9395880FCF
:100A400008F09927EE0F9795879508950E942B053A
:100A500008F481E00895990F0008550FAA0BE0E80B
:100A6000FEEF16161706E807F907C0F01216130670
:100A7000E407F50798F0621B730B840B950B39F4B0
:100A80000A2661F0232B242B252B21F408950A2616
:100A900009F4A140A6958FEF811D811D089597F956
:100AA0009F6780E870E060E008959FEF80EC089514
:100AB00000240A941616170618060906089500243D
:100AC0000A9412161306140605060895092E0394B7
:100AD000000C11F4882352F0BB0F40F4BF2B11F42B
:100AE00060FF04C06F5F7F4F8F4F9F4F089557FD8A
:100AF0009058440F551F59F05F3F71F04795880F8C
:100B000097FB991F61F09F3F79F087950895121622
:100B100013061406551FF2CF4695F1DF08C01616CE
:100B200017061806991FF1CF86957105610508947F
:100B30000895E894BB2766277727CB0197F9089596
:040B4000F894FFCF57
:100B4400FF18191A1B1C1D1E1F08090A00000001AA
:100B5400000002000003000004000005000006007D
:100B6400001800001900001A00001B00001C0000FF
:060B74001D00001E000040
:00000001FF
