:100000000C942A000C943F000C943F000C943F0089
:100010000C943F000C943F000C943F000C943F0064
:100020000C943F000C943F000C943F000C943F0054
:100030000C943F000C943F000C943F000C943F0044
:100040000C943F000C943F000C943F000C943F0034
:100050000C943F0011241FBECFE5D8E0DEBFCDBF1A
:1000600010E0A0E6B0E0E6EBF8E002C005900D92EB
:10007000A23AB107D9F70E9441000C9459040C949C
:100080000000CF93DF93CDB7DEB70E94960000004B
:10009000DF91CF910895CF93DF9300D000D01F92CE
:1000A000CDB7DEB78B837D836C8319821A828B81F7
:1000B000882F90E0805A9F4FFC0180818A831982AB
:1000C00029C08A81882F90E02981222F30E002C048
:1000D000959587952A95E2F781709927892B61F08C
:1000E0008981882F90E02C813D81820F931FFC0134
:1000F00080810E94C2010BC08981882F90E02C81F1
:100100003D81820F931FFC0180810E94D001898173
:100110008F5F898389818730A0F200000F900F9054
:100120000F900F900F90DF91CF910895CF93DF93B1
:100130001F92CDB7DEB719820E94DE010E94130123
:100140008EE0898333C0998187E69802812D11243E
:10015000282F25952595892F880F880B322F381B3E
:10016000832F880F282F220F220F820F292F281B61
:10017000822F6AE670E00E944B00898197E689022F
:10018000912D112495959595880F880B392F381B43
:10019000832F61E770E00E944B0060E070E08AEF1F
:1001A00093E40E94350389818F5F8983898184323A
:1001B00054F284E2898333C0998187E69802812DC5
:1001C0001124282F25952595892F880F880B322FEC
:1001D000381B832F880F282F220F220F820F292FE1
:1001E000281B822F6AE670E00E944B00898197E607
:1001F0008902912D112495959595880F880B392F9B
:10020000381B832F61E770E00E944B0060E070E0D4
:100210008AEF93E40E943503898181508983898123
:100220008F3054F68DCFCF93DF9300D0CDB7DEB7AC
:1002300019821A8233C08981282F30E0C901880FC2
:10024000991F820F931F86589F4FFC018081813038
:1002500081F48981282F30E0C901880F991F820F0E
:10026000931F88589F4FFC0180810E94C2018A839E
:100270000FC08981282F30E0C901880F991F820F94
:10028000931F88589F4FFC0180810E94D0018A8370
:100290008A81882339F489818F5F898389818E30AF
:1002A00050F201C000008A810F900F90DF91CF9132
:1002B0000895CF93DF9300D000D01F92CDB7DEB763
:1002C0008C836D8319821A821B821B8249C08B81A9
:1002D000282F30E0C901880F991F820F931F88587B
:1002E0009F4FFC0190818C819817B9F58B81282F45
:1002F00030E0C901880F991F820F931F87589F4FC5
:10030000FC018081882369F48D81813029F48C81FE
:100310000E9478028A8311C08C810E94D6028A834F
:100320000CC08D81813029F48C810E94D6028A8391
:1003300004C08C810E9478028A838A81882F90E091
:100340008330910519F0049721F00EC082E0898373
:1003500003C083E08983000007C08B818F5F8B839C
:100360008B818E3008F4B3CF8B818E3011F482E014
:10037000898389810F900F900F900F900F90DF91DC
:10038000CF910895CF93DF931F92CDB7DEB78983C6
:1003900061E089810E9459010F90DF91CF9108950A
:1003A000CF93DF931F92CDB7DEB7898360E0898159
:1003B0000E9459010F90DF91CF910895CF93DF9361
:1003C000CDB7DEB78AE390E02FE7FC01208387E317
:1003D00090E0FC01108284E390E0FC01108281E354
:1003E00090E02FE7FC0120838BE390E0FC0110827A
:1003F00088E390E0FC01108285E390E0FC0110822C
:1004000082E390E0FC01108280E0DF91CF910895BB
:10041000CF93DF9300D01F92CDB7DEB789837B8364
:100420006A838981282F27708A819B81FC01208320
:1004300000000F900F900F90DF91CF910895CF9310
:10044000DF93CDB7DEB728970FB6F894DEBF0FBEA7
:10045000CDBF8A837C836B835E834D8338872F83F4
:100460008A8186958695869589838981282F30E0B3
:10047000C901880F991F820F931F9195819591094A
:100480009C01265C3F4F8B819C81FC013183208342
:100490008981282F30E0C901880F991F820F931F8F
:1004A0009195819591099C01255C3F4F8D819E819D
:1004B000FC01318320838981282F30E0C901880F16
:1004C000991F820F931F9195819591099C01275C3B
:1004D0003F4F8F819885FC0131832083000028964F
:1004E0000FB6F894DEBF0FBECDBFDF91CF91089558
:1004F000CF93DF93CDB7DEB729970FB6F894DEBF61
:100500000FBECDBF89871A821C821B821E821D826C
:1005100018861F8219828985803218F083E08983CA
:100520003BC0CE010296BC0189850E9408029E0153
:10053000295F3F4FAE014B5F5F4FCE010396BC0179
:1005400089850E941F028B819C81FC018081882FFC
:1005500090E02A81222F30E002C0959587952A9558
:10056000E2F781709927892B19F484E0898314C0FC
:100570008D819E812D813E81F9012081622F2A810A
:10058000422F50E021E030E002C0220F331F4A9595
:10059000E2F7262BFC012083898129960FB6F89477
:1005A000DEBF0FBECDBFDF91CF910895CF93DF9314
:1005B000CDB7DEB729970FB6F894DEBF0FBECDBF1B
:1005C00089871A821C821B821E821D8218861F82C6
:1005D00019828985803218F083E089833CC0CE017E
:1005E0000296BC0189850E9408029E01295F3F4F47
:1005F000AE014B5F5F4FCE010396BC0189850E941F
:100600001F028B819C81FC018081882F90E02A81D0
:10061000222F30E002C0959587952A95E2F78170E8
:100620009927892B19F484E0898315C08D819E81D7
:100630002D813E81F9012081622F2A81422F50E0D5
:1006400021E030E002C0220F331F4A95E2F72095E7
:100650002623FC012083898129960FB6F894DEBFFA
:100660000FBECDBFDF91CF910895CF93DF93CDB76C
:10067000DEB728970FB6F894DEBF0FBECDBF6D83EF
:100680007E838F83988719821A821B821C8212C0F4
:1006900089819A81AB81BC812DEC3CEC4CE85EE316
:1006A000BC01CD010E947303DC01CB0189839A83D5
:1006B000AB83BC8389819A81AB81BC812D813E81D2
:1006C0004F815885BC01CD010E94DF03882304F3CC
:1006D000000028960FB6F894DEBF0FBECDBFDF91A5
:1006E000CF9108955058BB27AA270E948A030C94E3
:1006F0001F040E94110438F00E94180420F039F4FD
:100700009F3F19F426F40C940E040EF4E095E7FBD9
:100710000C940804E92F0E94300458F3BA176207BA
:1007200073078407950720F079F4A6F50C9452041A
:100730000EF4E0950B2EBA2FA02D0B01B9019001FC
:100740000C01CA01A0011124FF27591B99F0593F40
:1007500050F4503E68F11A16F040A22F232F342F88
:100760004427585FF3CF469537952795A795F040D6
:100770005395C9F77EF41F16BA0B620B730B840BEB
:10078000BAF09150A1F0FF0FBB1F661F771F881FA3
:10079000C2F70EC0BA0F621F731F841F48F48795FB
:1007A00077956795B795F7959E3F08F0B0CF9395ED
:1007B000880F08F09927EE0F9795879508950E9466
:1007C000E40308F481E00895990F0008550FAA0B7F
:1007D000E0E8FEEF16161706E807F907C0F0121654
:1007E0001306E407F50798F0621B730B840B950B57
:1007F00039F40A2661F0232B242B252B21F40895AC
:100800000A2609F4A140A6958FEF811D811D089548
:1008100097F99F6780E870E060E008959FEF80ECB3
:10082000089500240A941616170618060906089556
:1008300000240A9412161306140605060895092EBC
:100840000394000C11F4882352F0BB0F40F4BF2B2B
:1008500011F460FF04C06F5F7F4F8F4F9F4F08956B
:1008600057FD9058440F551F59F05F3F71F0479561
:10087000880F97FB991F61F09F3F79F08795089546
:10088000121613061406551FF2CF4695F1DF08C065
:10089000161617061806991FF1CF86957105610582
:1008A00008940895E894BB2766277727CB0197F92A
:0608B0000895F894FFCF4B
:1008B6003F065B4F666D7D077F6F000102030405EF
:1008C6000618191A1B1C1D1E00000001000002005C
:1008D60000030000040000050000060000180000E8
:1008E6001900001A00001B00001C00001D00001E5D
:0208F600000000
:00000001FF
